S01200004C45445F42555A5A45522E73726563FC
S11300000C9496000C94A0000C94A0000C94A000F6
S11300100C94A0000C94A0000C94A0000C94A000DC
S11300200C94A0000C94A0000C94A0000C94A000CC
S11300300C94A0000C94A0000C94A0000C94A000BC
S11300400C94A0000C94A0000C94A0000C94A000AC
S11300500C94A000AD00B700C100CB00D400D400C4
S1130060D400D400D400D400D400D400D400D400EC
S1130070D400D400D400D400D400D400D400D400DC
S1130080D400D400D400D400D400D400D400D400CC
S1130090D400D400AD00B700C100CB00E100FA00E9
S11300A013012C014401440144014401440144016D
S11300B04401440144014401440144014401440114
S11300C04401440144014401440144014401440104
S11300D0440144014401440144014401E100FA00A3
S11300E013012C01500152015401560157015701CB
S11300F0570157015701570157015701570157013C
S1130100570157015701570157015701570157012B
S1130110570157015701570157015701570157011B
S113012057015701500152015401560111241FBEB9
S1130130CFE5D8E0DEBFCDBF0E9476010C94D0019C
S11301400C94000090E0FC01E154F109E432F10563
S113015058F5E65DFF4F0C94CA018AB350E002C023
S1130160440F551F6A95E2F7482B4ABB089587B39D
S113017050E002C0440F551F6A95E2F7482B47BB75
S1130180089584B350E002C0440F551F6A95E2F706
S1130190482B44BB089581B350E002C0440F551F5F
S11301A06A95E2F7482B41BB089590E0FC01E154C5
S11301B0F109E432F10508F067C0E25BFF4F0C94EB
S11301C0CA0141110CC02BB381E090E002C0880F3A
S11301D0991F6A95E2F7809582238BBB08952BB310
S11301E081E090E002C0880F991F6A95E2F7822BA4
S11301F08BBB089541110CC028B381E090E002C08C
S1130200880F991F6A95E2F78095822388BB089529
S113021028B381E090E002C0880F991F6A95E2F745
S1130220822B88BB089541110CC025B381E090E076
S113023002C0880F991F6A95E2F78095822385BBD7
S1130240089525B381E090E002C0880F991F6A9554
S1130250E2F7822B85BB089541110CC022B381E0E3
S113026090E002C0880F991F6A95E2F78095822377
S113027082BB089522B381E090E002C0880F991FE9
S11302806A95E2F7822B82BB089590E0FC01E15469
S1130290F109E432F10558F4EE58FF4F0C94CA0109
S11302A06ABB089567BB089564BB089561BB089554
S11302B0CF93DF93C82FD62F41E00E94A20041E0E4
S11302C06D2F8C2F0E94D500DF91CF910895CF938D
S11302D0DF93C82FD62F41E00E94A20040E06D2F8B
S11302E08C2F0E94D500DF91CF91089568E081E6BC
S11302F00E94450160E081E60E9458012FEF84E3EB
S11303009CE0215080409040E1F700C0000060E094
S113031081E60E94670161E081E60E9458012FEFA7
S113032084E39CE0215080409040E1F700C000004D
S113033061E081E60E94670162E081E60E94580163
S11303402FEF84E39CE0215080409040E1F700C00F
S1130350000062E081E60E94670141E063E081E61B
S11303600E94D5002FEF89E698E12150804090400B
S1130370E1F700C0000040E063E081E60E94D500A0
S11303802FEF89E698E1215080409040E1F700C0CA
S11303900000B0CFEE0FFF1F0590F491E02D0994FB
S10703A0F894FFCFFB
S9030000FC
