S01700004C45445F496E746572666163696E672E737265636F
S11300000C94BA000C94C4000C94C4000C94C40066
S11300100C94C4000C94C4000C94C4000C94C4004C
S11300200C94C4000C94C4000C94C4000C94C4003C
S11300300C94C4000C94C4000C94C4000C94C4002C
S11300400C94C4000C94C4000C94C4000C94C4001C
S11300500C94C400D100DB00E500EF00F800F800C8
S1130060F800F800F800F800F800F800F800F800CC
S1130070F800F800F800F800F800F800F800F800BC
S1130080F800F800F800F800F800F800F800F800AC
S1130090F800F800D100DB00E500EF0005011E01C7
S11300A0370150016801680168016801680168014D
S11300B068016801680168016801680168016801F4
S11300C068016801680168016801680168016801E4
S11300D068016801680168016801680105011E0181
S11300E0370150017401760178017A017B017B01AB
S11300F07B017B017B017B017B017B017B017B011C
S11301007B017B017B017B017B017B017B017B010B
S11301107B017B017B017B017B017B017B017B01FB
S11301207B017B017401760178017A0187019201D8
S11301309D01A801B201B201B201B201B201B20142
S1130140B201B201B201B201B201B201B201B20113
S1130150B201B201B201B201B201B201B201B20103
S1130160B201B201B201B201B201B201870192013E
S11301709D01A80111241FBECFE5D8E0DEBFCDBF8D
S11301800E94E6010C9429020C94000090E0FC010A
S1130190E154F109E432F10558F5E65DFF4F0C94A2
S11301A023028AB350E002C0440F551F6A95E2F758
S11301B0482B4ABB089587B350E002C0440F551F33
S11301C06A95E2F7482B47BB089584B350E002C018
S11301D0440F551F6A95E2F7482B44BB089581B339
S11301E050E002C0440F551F6A95E2F7482B41BB0B
S11301F0089590E0FC01E154F109E432F10508F0BE
S113020067C0E25BFF4F0C94230241110CC02BB377
S113021081E090E002C0880F991F6A95E2F780950B
S113022082238BBB08952BB381E090E002C0880F3A
S1130230991F6A95E2F7822B8BBB089541110CC07C
S113024028B381E090E002C0880F991F6A95E2F715
S11302508095822388BB089528B381E090E002C092
S1130260880F991F6A95E2F7822B88BB0895411184
S11302700CC025B381E090E002C0880F991F6A95F5
S1130280E2F78095822385BB089525B381E090E051
S113029002C0880F991F6A95E2F7822B85BB0895E7
S11302A041110CC022B381E090E002C0880F991F75
S11302B06A95E2F78095822382BB089522B381E098
S11302C090E002C0880F991F6A95E2F7822B82BBE7
S11302D0089590E0FC01E154F109E432F10558F489
S11302E0EE58FF4F0C9423026ABB089567BB089530
S11302F064BB089561BB089590E0FC01E154F109E9
S1130300E432F10578F5EA56FF4F0C9423022BB33F
S113031081E090E002C0880F991F6A95E2F7822776
S11303208BBB089528B381E090E002C0880F991F29
S11303306A95E2F7822788BB089525B381E090E0AF
S113034002C0880F991F6A95E2F7822785BB08953A
S113035022B381E090E002C0880F991F6A95E2F70A
S1130360822782BB0895CF93DF93C82FD62F41E015
S11303700E94C60041E06D2F8C2F0E94F900DF918E
S1130380CF910895CF93DF93C82FD62F41E00E94D9
S1130390C60040E06D2F8C2F0E94F900DF91CF91B1
S11303A0089541E060E081E60E94C60041E061E01A
S11303B081E60E94C60041E062E081E60E94C60038
S11303C041E063E081E60E94C60008950E94D101E5
S11303D06FE082E60E946901C0E017C041E06C2F23
S11303E081E60E94F9006C2F83E60E94B3016C2F12
S11303F082E60E947C012FEF80E792E0215080404A
S11304009040E1F700C00000CF5FC4303CF3C3E08C
S113041017C040E06C2F81E60E94F9006C2F83E640
S11304200E94C2016C2F82E60E947C012FEF80E7BC
S113043092E0215080409040E1F700C00000C1509C
S1130440CC233CF7C9CFEE0FFF1F0590F491E02DAC
S10904500994F894FFCFAB
S9030000FC
