S00E0000427574746F6E2E737265639A
S11300000C9496000C94A0000C94A0000C94A000F6
S11300100C94A0000C94A0000C94A0000C94A000DC
S11300200C94A0000C94A0000C94A0000C94A000CC
S11300300C94A0000C94A0000C94A0000C94A000BC
S11300400C94A0000C94A0000C94A0000C94A000AC
S11300500C94A000B400BE00C800D200DB00DB009A
S1130060DB00DB00DB00DB00DB00DB00DB00DB00B4
S1130070DB00DB00DB00DB00DB00DB00DB00DB00A4
S1130080DB00DB00DB00DB00DB00DB00DB00DB0094
S1130090DB00DB00B400BE00C800D200E8000101B0
S11300A01A0133014B014B014B014B014B014B0135
S11300B04B014B014B014B014B014B014B014B01DC
S11300C04B014B014B014B014B014B014B014B01CC
S11300D04B014B014B014B014B014B01E80001016A
S11300E01A01330158016C0180019401A801A8018F
S11300F0A801A801A801A801A801A801A801A801B4
S1130100A801A801A801A801A801A801A801A801A3
S1130110A801A801A801A801A801A801A801A80193
S1130120A801A80158016C018001940111241FBE8B
S1130130CFE5D8E0DEBFCDBF0E94C8010C94E20138
S11301400C94000040E00E94A90008950E944C0114
S1130150089590E0FC01E154F109E432F10558F509
S1130160E65DFF4F0C94DC018AB350E002C0440FFB
S1130170551F6A95E2F7482B4ABB089587B350E0B0
S113018002C0440F551F6A95E2F7482B47BB0895F8
S113019084B350E002C0440F551F6A95E2F7482B20
S11301A044BB089581B350E002C0440F551F6A95C3
S11301B0E2F7482B41BB089590E0FC01E154F109BA
S11301C0E432F10508F067C0E25BFF4F0C94DC01F8
S11301D041110CC02BB381E090E002C0880F991F3D
S11301E06A95E2F7809582238BBB08952BB381E057
S11301F090E002C0880F991F6A95E2F7822B8BBBAF
S1130200089541110CC028B381E090E002C0880F2A
S1130210991F6A95E2F78095822388BB089528B3D5
S113022081E090E002C0880F991F6A95E2F7822B63
S113023088BB089541110CC025B381E090E002C051
S1130240880F991F6A95E2F78095822385BB0895EC
S113025025B381E090E002C0880F991F6A95E2F708
S1130260822B85BB089541110CC022B381E090E03C
S113027002C0880F991F6A95E2F78095822382BB9A
S1130280089522B381E090E002C0880F991F6A9517
S1130290E2F7822B82BB089590E0FC01E154F1095E
S11302A0E432F10508F054C0EE58FF4F0C94DC0121
S11302B049B381E090E09C01062E02C0220F331F57
S11302C00A94E2F7842F90E08223932302C0959549
S11302D087956A95E2F7089546B381E090E09C0122
S11302E0062E02C0220F331F0A94E2F7842F90E0F7
S11302F08223932302C0959587956A95E2F7089522
S113030043B381E090E09C01062E02C0220F331F0C
S11303100A94E2F7842F90E08223932302C09595F8
S113032087956A95E2F7089540B381E090E09C01D7
S1130330062E02C0220F331F0A94E2F7842F90E0A6
S11303408223932302C0959587956A95E2F70895D1
S113035080E00895CF93DF93C82FD62F41E00E9409
S1130360A90041E06D2F8C2F0E94DC00DF91CF911A
S11303700895CF93DF93C82FD62F41E00E94A900A0
S113038040E06D2F8C2F0E94DC00DF91CF91089507
S113039060E084E60E94A20060E084E60E94A60079
S11303A0813029F460E081E60E94AA01F5CF60E083
S11303B081E60E94B901F0CFEE0FFF1F0590F49182
S10B03C0E02D0994F894FFCF2D
S9030000FC
